:040000008A15792ABA
:08000800FF00030EFC000A0ECC
:0C001000FD00040EFE008A150A12A92A49
:10002000CA08031D14280800F93000000000000071
:10003000000000000000FF3E031D15280000000026
:1000400000000000000000000000CA0B1428080097
:10005000DD08031D2C28080004300000FF3E031DAE
:100060002D2800000000DD0B2C2808000130C907F6
:10007000C90CFF30C90500000000C90B3B2808006F
:100080004908D100D0010310D10DD00DD10DD00DF4
:10009000D1070318D00AD1070318D00A5930D10765
:1000A0000318D00A003050078A004A08D0005108CF
:1000B000820000308A000030D10075306E28003098
:1000C0008A000030D10078306E2800308A0000307D
:1000D000D1007C306E280030D1008830D007031862
:1000E000D10A51088A0050088200023401340034D9
:1000F00004340534063407340134043407340A3434
:1001000002340534083400340334063409340B3423
:100110003134343437342A343234353438343034AA
:100120003334363439342334FA30CA001020FA30EC
:10013000CA001020FA30CA001020FA30CA0010207D
:10014000C60B94280800E001E101E201E301E401AB
:10015000E01A0800581CBA285408E107550803188B
:10016000550FE20756080318560FE3075708031800
:10017000570FE4070310DB0CDA0CD90CD80C031072
:10018000D40DD50DD60DD70DE00AA828DC01DD0170
:10019000DE01DF01E101E201E301E401E001E01A37
:1001A00008000310E10DE20DE30DE40DD40DD50DB3
:1001B000D60DD70DDC0DDD0DDE0DDF0D5B085F020A
:1001C000031DEC285A085E02031DEC2859085D0245
:1001D000031DEC2858085C02031CFD285808DC02AB
:1001E0005908031C590FDD025A08031C5A0FDE027E
:1001F0005B08031C5B0FDF026114E00ACF280317C2
:100200008C18FF2803134A08831203178D008316E6
:1002100003134C08831203178C0083168C130C15E0
:1002200080300B050313CD008B13553003178D0061
:10023000AA308D008C148C181B290313CD080319C8
:1002400022298B1703170C110800CA0148088312D2
:1002500003178D0083168C130C1483120C0883165D
:100260000313CA004A08CB000800D301D401D5010A
:10027000D601CE01CF01D001D101D201D21A08009E
:100280000310CE0DCF0DD00DD10DC60DC70DC80D6D
:10029000C90DD30DD40DD50DD60D4D085602031D35
:1002A0005B294C085502031D5B294B085402031DB2
:1002B0005B294A085302031C6C294A08D3024B08E5
:1002C000031C4B0FD4024C08031C4C0FD5024D08E5
:1002D000031C4D0FD6024E14D20A3E29C90148080C
:1002E00049020318080064000130CA001020C90A3E
:1002F0006F29CC08031D7E29D3010800CE01CA3026
:10030000CF009A30D0003B30D100D201C91F9E29C6
:1003100083134B1883174A088400D40154088407B8
:100320002D308000D20AC609C709C809C909C60FFD
:100330009E29C70F9E29C80F9E29C90ACD014608CC
:10034000470448044904FF39031DAC290130CD009E
:10035000CE00CF01D001D1014C08520203182F2A40
:100360005108003C031DBE295008003C031DBE2956
:100370004F08003C031DBE294E08003C03182F2ADD
:1003800051084902031DCE2950084802031DCE29F9
:100390004F084702031DCE294E0846020318D329F1
:1003A000CD080319182A4608D4004708D500480884
:1003B000D6004908D7004E08D8004F08D900500889
:1003C000DA005108DB00C6206108CD004D08303E40
:1003D000D40083134B1883174A085207840054082B
:1003E0008000D20A4D08D400D501D601D7014E08AD
:1003F000D8004F08D9005008DA005108DB00A320CC
:100400006108DC006208DD006308DE006408DF00CC
:100410005C08C6025D08031C5D0FC7025E08031C72
:100420005E0FC8025F08031C5F0FC9020130CD00D8
:100430004E08D4004F08D5005008D6005108D70008
:100440000A30D800D901DA01DB01C6206108CE00EC
:100450006208CF006308D0006408D100AC294C08C2
:10046000520203183B2A83134B1883174A0852077A
:100470008400003080005208D3000800C901CA017E
:10048000CB01CC01CD01CE01831347188317460859
:100490008400CF014F08840700082D3A031D532A1A
:1004A0000130C900CA0048084A020318AE2A831363
:1004B0004718831746084A07840030300002031C9F
:1004C000AE2A83134718831746084A07840000089A
:1004D000393C031CAE2A4B08D4004C08D5004D080B
:1004E000D6004E08D7000A30D800D901DA01DB0166
:1004F000A3206108DC006208DD006308DE006408F8
:10050000DF005C08CB005D08CC005E08CD005F0812
:10051000CE0083134718831746084A0784003030FB
:100520000002D000D101D201D3014B08D0074C0802
:1005300003184C0FD1074D0803184D0FD2074E0872
:1005400003184E0FD3075008CB005108CC005208B7
:10055000CD005308CE004A0ACA00532AC90803191D
:10056000CC2A4B08003CD0000030D100D200D30090
:100570004C08031C4C0FD1024D08031C4D0FD20236
:100580004E08031C4E0FD3025008CB005108CC007C
:100590005208CD005308CE004B08D0004C08D100C3
:1005A0004D08D2004E08D3000800D1014E0849067C
:1005B000031D7C2B4F084A06031D7C2BD2014808E3
:1005C00052020318EE2A831347188317460852076E
:1005D000840080080319EE2AD20ADF2A500852024A
:1005E0000318552BD1014D0851020318022B831318
:1005F0004A18831749085107840080080319022B01
:10060000D10AF32A52085002D300510853020318AA
:100610000C2B52085002D10051085207CD0051084E
:10062000D2005208003C03182B2BD203CD038313B6
:100630004A188317490884005208D40054088407D4
:100640000008D50083134F1883174E084D07840008
:1006500055088000112BD201480852020318522B72
:10066000500852020318522B831347188317460869
:100670005207840080080319522B831347188317ED
:10068000460884005208D400540884070008D500A6
:1006900083134F1883174E085207840055088000B3
:1006A000D20A2C2B5208D107DE2BD1014808510267
:1006B0000318DE2B500851020318DE2B8313471852
:1006C000831746085107840080080319DE2B831323
:1006D00047188317460884005108D300530884073D
:1006E0000008D40083134F1883174E085107840065
:1006F00054088000D10A562BD10148085102031832
:10070000A32B500851020318A32B831347188317F8
:1007100046085107840080080319A32B8313471848
:100720008317460884005108D30053088407000843
:10073000D40083134F1883174E08510784005408C0
:100740008000D10A7D2B500851020318DE2B51087E
:100750004E07D3004F08D4000318D40A5308C6002C
:100760005408C70051085002C800D2014D08520277
:100770000318DC2B480852020318DC2B83134A1899
:10078000831749085207840080080319DC2B831360
:100790004A188317490884005208D3005308840775
:1007A0000008D400831347188317460852078400B3
:1007B00054088000D20AB62B5208D10750085102C3
:1007C0000318080083134F1883174E08510784003D
:1007D000003080000800831206128612061386136A
:1007E0000611861183165A0E0F39DC000F30DC0516
:1007F0005C1CFC2B831206168316DC1C012C831256
:10080000861683165C1D062C831206178316DC1DC4
:100810000B2C831286178316DB080319112C831205
:1008200006150A308316DD002820831286150A304B
:100830008316DD002820831286110F3083165A0597
:10084000DC000A30DD00282083120612861206130F
:1008500086130611861183165C1C302C8312061633
:100860008316DC1C352C8312861683165C1D3A2CED
:10087000831206178316DC1D3F2C831286178316FE
:10088000DB080319452C831206150A308316DD0098
:100890002820831286150A308316DD002820831253
:1008A00086110A308316DD00282008004608CA0099
:1008B0004708CB004808CC00FF2008004608C800C5
:1008C0004708C90025214B08C800C90108000030AD
:1008D00083160313C7003430C6001430C8003E220C
:1008E0005008A8005108A9005208AA005308AB00FC
:1008F0002808D4002908D5002A08D6002B08D700DC
:100900001030D8002730D900DA01DB01C620610899
:10091000AE006208AF002808C6002908C7002A08F0
:10092000C8002B08C9000A30CA00CB01CC01CD0198
:1009300035215308B0005408B1002808D400290814
:10094000D5002A08D6002B08D7000A30D800D901D4
:10095000DA01DB01C6206108A8006208A90063086B
:10096000AA006408AB000430C600C7013008C80004
:100970003108C900562414300313CA001020280877
:10098000C6002908C7002A08C8002B08C9000A3079
:10099000CA00CB01CC01CD0135215308B000540869
:1009A000B1002808D4002908D5002A08D6002B0851
:1009B000D7000A30D800D901DA01DB01C62061086E
:1009C000A8006208A9006308AA006408AB0003300D
:1009D000C600C7013008C8003108C90056241430C9
:1009E0000313CA0010202808C6002908C7002A08D7
:1009F000C8002B08C9000A30CA00CB01CC01CD01C8
:100A000035215308B0005408B1002808D400290843
:100A1000D5002A08D6002B08D7000A30D800D90103
:100A2000DA01DB01C6206108A8006208A90063089A
:100A3000AA006408AB000230C600C7013008C80035
:100A40003108C900562414300313CA0010202808A6
:100A5000C6002908C7002A08C8002B08C9000A30A8
:100A6000CA00CB01CC01CD0135215308B000540898
:100A7000B1002808D4002908D5002A08D6002B0880
:100A8000D7000A30D800D901DA01DB01C62061089D
:100A9000A8006208A9006308AA006408AB0001303E
:100AA000C600C7013008C8003108C90056241430F8
:100AB0000313CA0010202808C6002908C7002A0806
:100AC000C8002B08C9000A30CA00CB01CC01CD01F7
:100AD00035215308B0005408B1002808D400290873
:100AE000D5002A08D6002B08D7000A30D800D90133
:100AF000DA01DB01C6206108A8006208A9006308CA
:100B0000AA006408AB00C601C7013008C80031085C
:100B1000C900562414300313CA0010202808B0005E
:100B20002908B100C601C7012E08C8002F08C90056
:100B3000562403133D10080083160313C601C70192
:100B40005E244808B2004908B3001430CA001020DF
:100B50003208C6003308C700C801C9010030CB0005
:100B60005C30CA001430CC0079210030C70020303E
:100B7000C6001430C8000030CA005C30C900143010
:100B8000CD000030CF002030CE001430D000D52270
:100B90000130C600C7015E244808B2004908B3000E
:100BA0001430CA0010203208C6003308C700C8013C
:100BB000C9010030CB005C30CA001430CC00792170
:100BC0000030C7002030C6001430C8000030CA0012
:100BD0005C30C9001430CD000030CF002030CE0092
:100BE0001430D000D5220230C600C7015E24480868
:100BF000B2004908B3001430CA0010203208C60001
:100C00003308C700C801C9010030CB005C30CA00FE
:100C10001430CC0079210030C7002030C6001430D9
:100C2000C8000030CA005C30C9001430CD0000306C
:100C3000CF002030CE001430D000D5220330C600C3
:100C4000C7015E244808B2004908B3001430CA0046
:100C500010203208C6003308C700C801C90100309F
:100C6000CB005C30CA001430CC0079210030C700C2
:100C70002030C6001430C8000030CA005C30C90003
:100C80001430CD000030CF002030CE001430D00022
:100C9000D5220430C600C7015E244808B2004908C6
:100CA000B3001430CA0010203208C6003308C70051
:100CB000C801C9010030CB005C30CA001430CC0040
:100CC00079210030C7002030C6001430C800003041
:100CD000CA005C30C9001430CD000030CF00203095
:100CE000CE001430D000D522080083160313C601AD
:100CF000C7010130C800C901562414300313CA00CB
:100D000010200130C600C7010230C800C9015624B6
:100D100014300313CA0010200230C600C70103308C
:100D2000C800C901562414300313CA001020033030
:100D3000C600C7010430C800C9015624143003138B
:100D4000CA0010200430C600C7010530C800C90120
:100D5000562414300313CA0010200800CD0149089E
:100D60004D020318D52E4C084D020318D52E8313BF
:100D70004718831746084D07840080080319D52EAD
:100D8000831347188317460884004D08CE004E0889
:100D900084070008CF0083134B1883174A084D07B8
:100DA00084004F088000CD0AAF2E4C084D02031876
:100DB000080083134B1883174A084D07840000303E
:100DC00080000800CD01CE0148084E020318372FDD
:100DD0004B084E020318282F831347188317460821
:100DE00084000008CF0083134A1883174908840041
:100DF0000008D000CC080319132F61304F02031CE8
:100E0000082F4F087A3C031C082FDF304F05CF0016
:100E100061305002031C132F50087A3C031C132F1F
:100E2000DF305005D00050084F0203181A2FFF3052
:100E3000D10008004F0850020318212F0130D100C3
:100E40000800C60A0319C70AC90A0319CA0A352FB6
:100E5000831347188317460884008008031D322F28
:100E6000D10108000130D1000800CE0AE42E4B0861
:100E70004806031D3D2FD101080083134A1883172C
:100E8000490884008008031D472FD1010800FF3066
:100E9000D1000800D901D9015808590203180800E7
:100EA00083134718831746085907840080080319DD
:100EB0000800831347188317460859078400000861
:100EC000DA001030DB00EB23D90A4C2FC708031DD2
:100ED0006C2F8030C7006E2FC030C7004608470710
:100EE000DA00DB01EB230230C8006E21080001307C
:100EF00083160313DA00DB01EB230230C8006E21F6
:100F00000230DA00DB01EB230230C8006E2108005A
:100F10008316031306128312061283168612831297
:100F20008612831606138312061383168613831202
:100F300086138316061183120611831686118312F7
:100F400086110C308316C8006E213330DA00DB01C5
:100F5000EB230230C8006E213330DA00DB01EB23D3
:100F60000230C8006E213230DA00DB01EB230230A0
:100F7000C8006E212C30DA00DB01EB230230C80000
:100F80006E210630DA00DB01EB230230C8006E214F
:100F90000C30DA00DB01EB230230C8006E21013097
:100FA000DA00DB01EB230230C8006E210230DA00E8
:100FB000DB01EB230230C8006E2108008316031307
:100FC000C601033046028A15031890283E08C9005E
:100FD0004608CA008A114020CB000130CC00CD0168
:100FE0004B08FF398A110A120319FB2F0310CC0D8D
:100FF000CD0DFF3EF12F4C0988053E08C90046087B
:10100000CA004020CB000130CC004B08FF398A15C4
:101010000A1203190F280310CC0DFF3E06284C08B6
:10102000831288040A308316C9008A113620C7014A
:10103000043047028A15031878283F08C90047087A
:10104000CA008A114020CE000130CF004E08FF397F
:101050008A150A12031930280310CF0DFF3E2728E6
:101060004F0888043F08C9004708CA008A11402079
:10107000CB000130CC00CD014B08FF398A150A1294
:10108000031947280310CC0DCD0DFF3E3D284C0819
:10109000831208050319752883164608C800CE0177
:1010A000C80DCE0DC80DCE0DFC30C8054708C807C9
:1010B0003E08C9004608CA008A114020CE0001300F
:1010C000CF004E08FF398A150A1203196B28031046
:1010D000CF0DFF3E62284F0888044008C900480829
:1010E000CA008A114020CE0008008316C70A1828BB
:1010F0003E08C9004608CA008A114020CB000130D2
:10110000CC004B08FF398A150A1203198B280310EB
:10111000CC0DFF3E82284C088804C60A8A11E12FB4
:10112000FF30CE0008000730831603139F00C03045
:101130008100B201B301BD103D10C4010030C700F1
:10114000C430C600C9010030CB004830CA0014309A
:10115000CC008A11AE26C4010030C700C430C600DE
:10116000C9010030CB003430CA001430CC00AE26A8
:10117000C4010030C700C430C600C9010030CB0034
:101180002030CA001430CC00AE2675269C25882756
:101190008A15BD1CFD28FD3007058700FD30831230
:1011A000070587008316C601C7018A11662720300C
:1011B000CB00D500D6005330C8006130D300633077
:1011C000D2006530C9006630CA006A30D0006B308A
:1011D000CE006C30CF006E30D4006F30CC00743055
:1011E000CD007530D100D7010030C700C830C6002F
:1011F0000F30D8004A278A1547293D182A29C601E9
:10120000C7018A1166275030C8006130C9007330A9
:10121000CA00CB007730CC006F30CD007230CE00EA
:101220006430CF003A30D000D1010030C700C83060
:10123000C6000930D8004A27FC3007058700FC307B
:10124000831207058316C20002304204831287000E
:101250008A154729C601C7018A1166274E30C80082
:101260006530C9007730CA002030CB007030CC0028
:101270006130CD007330CE00CF003A30D000D101C4
:101280000030C700C830C6000930D8004A278A118C
:10129000DE274E08B200B301FF30320603193308CF
:1012A0008A150A120319C828C3010A303202031929
:1012B00033080319C30AC201BD18C20A4208430514
:1012C000031973293D14BD10C8010030C700C83090
:1012D000C600C9010030CB002030CA001430CC0059
:1012E0008A11AE2677270B303206031933088A1588
:1012F000031D192A3D18CC290030C7003430C60020
:101300001430C8000030CA002030C9001430CB00AF
:10131000CC018A11E226D1088A150319AE29BD1025
:10132000C8010030C700C830C600C9010030CB007A
:101330003430CA001430CC008A11AE26C801003007
:10134000C700C830C600C9010030CB004830CA0011
:101350001430CC00AE2677278A15192ABD14C8018F
:101360000030C700C830C600C9010030CB0034309F
:10137000CA001430CC008A11AE26C8010030C70064
:10138000C830C600C9010030CB004830CA00143054
:10139000CC00AE268A15192A8A1167241430CA0097
:1013A00010209C250230C60094207727C601C70173
:1013B00066272030CD002130D5005330C800613081
:1013C000CC00D200D4006630CA006930C900D00019
:1013D0006E30D3007030CF007230CB007330D1004C
:1013E0007530CE00D6010030C700C830C6000E30C0
:1013F000D8004A270230C600942077273D10C80144
:101400000030C700C830C600C9010030CB003430FE
:10141000CA001430CC00AE26C8010030C700C83066
:10142000C600C9010030CB004830CA001430CC00DF
:10143000AE26C50132080B3C03193308031DC50A4B
:10144000C40132080A3C03193308031DC40A4408C6
:1014500045058A1503196A2A3208C6003308C700F1
:10146000C801C9010030CB005C30CA001430CC0088
:101470008A1179210030C7003430C6001430C8000A
:101480000030CA005C30C9001430CD000030CF00FD
:101490003430CE001430D000D5220030C7004830A0
:1014A000C6001430C8002A30CB00CC010030CA007E
:1014B000CB30C9000130CD000030CF004830CE0025
:1014C0001430D000D5220030C7004830C600143098
:1014D000D8004A27FF303206031933088A1503194A
:1014E000C8288A11DE274E08B200B3018A150A12F5
:1014F0006A2AD530F000C430F100BB30F200DC3095
:10150000F300F401F501F601F701F801F901FA0120
:10151000FB0183160313A001A101A201A301B701DE
:10152000B801AC01AD01B901BA01BB01BC01A40114
:10153000A501A601A701B501B601B4010030BE00A6
:101540000130BF000230C0000330C1008A150A120A
:1015500093287E0E84007D0E8A007C0E8300FF0E91
:041560007F0E0900F1
:02400E007A3FF7
:00000001FF
